{
  "contractName": "Bet",
  "abi": [
    {
      "inputs": [],
      "payable": false,
      "stateMutability": "nonpayable",
      "type": "constructor"
    },
    {
      "constant": false,
      "inputs": [],
      "name": "kill",
      "outputs": [],
      "payable": false,
      "stateMutability": "nonpayable",
      "type": "function"
    },
    {
      "constant": false,
      "inputs": [],
      "name": "BetOnUp",
      "outputs": [],
      "payable": true,
      "stateMutability": "payable",
      "type": "function"
    },
    {
      "constant": false,
      "inputs": [],
      "name": "BetOnDown",
      "outputs": [],
      "payable": true,
      "stateMutability": "payable",
      "type": "function"
    },
    {
      "constant": false,
      "inputs": [],
      "name": "WithdrawUp",
      "outputs": [],
      "payable": false,
      "stateMutability": "nonpayable",
      "type": "function"
    },
    {
      "constant": false,
      "inputs": [],
      "name": "WithdrawDown",
      "outputs": [],
      "payable": false,
      "stateMutability": "nonpayable",
      "type": "function"
    }
  ],
  "bytecode": "0x6060604052341561000f57600080fd5b336000806101000a81548173ffffffffffffffffffffffffffffffffffffffff021916908373ffffffffffffffffffffffffffffffffffffffff1602179055506103178061005e6000396000f30060606040526004361061006d576000357c0100000000000000000000000000000000000000000000000000000000900463ffffffff16806301a20d531461007257806341c0e1b51461007c5780636148c68b146100915780639a6b5f53146100a6578063dbbba45b146100b0575b600080fd5b61007a6100c5565b005b341561008757600080fd5b61008f61010f565b005b341561009c57600080fd5b6100a46101a0565b005b6100ae610250565b005b34156100bb57600080fd5b6100c361029a565b005b33600160006101000a81548173ffffffffffffffffffffffffffffffffffffffff021916908373ffffffffffffffffffffffffffffffffffffffff16021790555034600381905550565b6000809054906101000a900473ffffffffffffffffffffffffffffffffffffffff1673ffffffffffffffffffffffffffffffffffffffff163373ffffffffffffffffffffffffffffffffffffffff16141561019e576000809054906101000a900473ffffffffffffffffffffffffffffffffffffffff1673ffffffffffffffffffffffffffffffffffffffff16ff5b565b6101a86102e2565b15806102025750600073ffffffffffffffffffffffffffffffffffffffff16600160009054906101000a900473ffffffffffffffffffffffffffffffffffffffff1673ffffffffffffffffffffffffffffffffffffffff16145b1561024e573373ffffffffffffffffffffffffffffffffffffffff166108fc600454600354019081150290604051600060405180830381858888f19350505050151561024d57600080fd5b5b565b33600260006101000a81548173ffffffffffffffffffffffffffffffffffffffff021916908373ffffffffffffffffffffffffffffffffffffffff16021790555034600481905550565b3373ffffffffffffffffffffffffffffffffffffffff166108fc600454600354019081150290604051600060405180830381858888f1935050505015156102e057600080fd5b565b600060019050905600a165627a7a72305820a3296a860baf240415366dfb1d43bba4db14109d8755e53146ace55ffceffaae0029",
  "source": "pragma solidity ^0.4.4;\n\n\ncontract Bet {\n\n  address owner;\n  address upBettor;\n  address downBettor;\n  uint upBet;\n  uint downBet;\n\n  function Bet() public {\n    owner = msg.sender;\n  }\n\n  function kill() public {\n    if (msg.sender == owner) selfdestruct(owner); \n  }\n\n  function BetOnUp() public payable {\n    // require(upBettor == address(0));\n    upBettor = msg.sender;\n    upBet = msg.value;\n  }\n\n  function BetOnDown() public payable {\n    // require(downBettor == address(0));\n    downBettor = msg.sender;\n    downBet = msg.value;\n  }\n\n  function WithdrawUp() public {\n    // require(msg.sender == upBettor);\n    // require(upBettor != address(0));\n    // TODO check timing\n    // if (upWon() || (downBettor == address(0)) ){\n    msg.sender.transfer(upBet + downBet);\n    // }\n  }\n\n  function WithdrawDown() public {\n    // require(msg.sender == downBettor);\n    // require(downBettor != address(0));\n    // TODO check timing\n    if (!upWon() || (upBettor == address(0)) ){\n      msg.sender.transfer(upBet + downBet);\n    }\n  }\n\n  function upWon() private pure returns (bool out) {\n    out = true;\n  }\n}\n",
  "sourcePath": "/mnt/c/linux/dev/truf/contracts/Bet.sol",
  "compiler": {
    "name": "solc",
    "version": "0.4.19+commit.c4cbbb05.Emscripten.clang"
  },
  "schemaVersion": "2.0.0",
  "updatedAt": "2018-03-07T09:25:30.796Z"
}